{
  "contractName": "Tickets",
  "abi": [
    {
      "inputs": [],
      "stateMutability": "nonpayable",
      "type": "constructor"
    },
    {
      "inputs": [],
      "name": "owner",
      "outputs": [
        {
          "internalType": "address",
          "name": "",
          "type": "address"
        }
      ],
      "stateMutability": "view",
      "type": "function",
      "constant": true
    },
    {
      "inputs": [
        {
          "internalType": "uint256",
          "name": "",
          "type": "uint256"
        }
      ],
      "name": "tickets",
      "outputs": [
        {
          "internalType": "uint256",
          "name": "price",
          "type": "uint256"
        },
        {
          "internalType": "address",
          "name": "owner",
          "type": "address"
        }
      ],
      "stateMutability": "view",
      "type": "function",
      "constant": true
    },
    {
      "inputs": [
        {
          "internalType": "uint256",
          "name": "_index",
          "type": "uint256"
        }
      ],
      "name": "buyTicket",
      "outputs": [],
      "stateMutability": "payable",
      "type": "function",
      "payable": true
    }
  ],
  "bytecode": "0x6080604052336000806101000a81548173ffffffffffffffffffffffffffffffffffffffff021916908373ffffffffffffffffffffffffffffffffffffffff16021790555034801561005057600080fd5b5060005b60128110156100f35767016345785d8a00006001826012811061007a576100796100f9565b5b600202016000018190555060006001826012811061009b5761009a6100f9565b5b6002020160010160006101000a81548173ffffffffffffffffffffffffffffffffffffffff021916908373ffffffffffffffffffffffffffffffffffffffff16021790555080806100eb90610161565b915050610054565b506101aa565b7f4e487b7100000000000000000000000000000000000000000000000000000000600052603260045260246000fd5b7f4e487b7100000000000000000000000000000000000000000000000000000000600052601160045260246000fd5b6000819050919050565b600061016c82610157565b91507fffffffffffffffffffffffffffffffffffffffffffffffffffffffffffffffff82141561019f5761019e610128565b5b600182019050919050565b610597806101b96000396000f3fe6080604052600436106100345760003560e01c806350b447121461003957806367dd74ca146100775780638da5cb5b14610093575b600080fd5b34801561004557600080fd5b50610060600480360381019061005b919061031c565b6100be565b60405161006e929190610399565b60405180910390f35b610091600480360381019061008c919061031c565b610108565b005b34801561009f57600080fd5b506100a86102bd565b6040516100b591906103c2565b60405180910390f35b600181601281106100ce57600080fd5b600202016000915090508060000154908060010160009054906101000a900473ffffffffffffffffffffffffffffffffffffffff16905082565b601281108015610119575060008110155b610158576040517f08c379a000000000000000000000000000000000000000000000000000000000815260040161014f9061043a565b60405180910390fd5b600073ffffffffffffffffffffffffffffffffffffffff16600182601281106101845761018361045a565b5b6002020160010160009054906101000a900473ffffffffffffffffffffffffffffffffffffffff1673ffffffffffffffffffffffffffffffffffffffff1614610202576040517f08c379a00000000000000000000000000000000000000000000000000000000081526004016101f9906104d5565b60405180910390fd5b600181601281106102165761021561045a565b5b6002020160000154341015610260576040517f08c379a000000000000000000000000000000000000000000000000000000000815260040161025790610541565b60405180910390fd5b33600182601281106102755761027461045a565b5b6002020160010160006101000a81548173ffffffffffffffffffffffffffffffffffffffff021916908373ffffffffffffffffffffffffffffffffffffffff16021790555050565b60008054906101000a900473ffffffffffffffffffffffffffffffffffffffff1681565b600080fd5b6000819050919050565b6102f9816102e6565b811461030457600080fd5b50565b600081359050610316816102f0565b92915050565b600060208284031215610332576103316102e1565b5b600061034084828501610307565b91505092915050565b610352816102e6565b82525050565b600073ffffffffffffffffffffffffffffffffffffffff82169050919050565b600061038382610358565b9050919050565b61039381610378565b82525050565b60006040820190506103ae6000830185610349565b6103bb602083018461038a565b9392505050565b60006020820190506103d7600083018461038a565b92915050565b600082825260208201905092915050565b7f496e76616c6964207469636b657420696e646578000000000000000000000000600082015250565b60006104246014836103dd565b915061042f826103ee565b602082019050919050565b6000602082019050818103600083015261045381610417565b9050919050565b7f4e487b7100000000000000000000000000000000000000000000000000000000600052603260045260246000fd5b7f5469636b657420616c7265616479206f776e6564000000000000000000000000600082015250565b60006104bf6014836103dd565b91506104ca82610489565b602082019050919050565b600060208201905081810360008301526104ee816104b2565b9050919050565b7f496e73756666696369656e74207061796d656e74000000000000000000000000600082015250565b600061052b6014836103dd565b9150610536826104f5565b602082019050919050565b6000602082019050818103600083015261055a8161051e565b905091905056fea26469706673582212207c97d726611f8b855ffb2d0139c5e19cdf98d55e4c0cf185861fabca842522e164736f6c634300080b0033",
  "immutableReferences": {},
  "source": "// SPDX-License-Identifier: MIT\npragma solidity >=0.4.22 <0.9.0;\n\nuint256 constant TOTAL_TICKETS = 18;\n\ncontract Tickets {\n  address public owner = msg.sender;\n\n  struct Ticket {\n    uint256 price;\n    address owner;\n  }\n\n  Ticket[TOTAL_TICKETS] public tickets;\n\n  constructor() {\n    for (uint256 i = 0; i < TOTAL_TICKETS; i++) {\n      tickets[i].price = 1e17; // 0.1 ETH\n      tickets[i].owner = address(0x0);\n    }\n  }\n\n  function buyTicket(uint256 _index) external payable {\n    require(_index < TOTAL_TICKETS && _index >= 0, \"Invalid ticket index\");\n    require(tickets[_index].owner == address(0x0), \"Ticket already owned\");\n    require(msg.value >= tickets[_index].price, \"Insufficient payment\");\n    tickets[_index].owner = msg.sender;\n  }\n}\n",
  "sourcePath": "D:\\PROJECTS\\DAPPCOPY\\contracts\\Tickets.sol",
  "compiler": {
    "name": "solc",
    "version": "0.8.11+commit.d7f03943.Emscripten.clang"
  },
  "schemaVersion": "3.4.16",
  "updatedAt": "2024-07-04T14:04:53.273Z",
  "networkType": "ethereum",
  "devdoc": {
    "kind": "dev",
    "methods": {},
    "version": 1
  },
  "userdoc": {
    "kind": "user",
    "methods": {},
    "version": 1
  }
}